:020000040800F2
:10000000C842002081020008494000084B40000817
:100010004D4000084F40000851400008000000001B
:100020000000000000000000000000005540000833
:1000300053400008000000005740000859400008E5
:10004000694000086B4000086D4000086F400008E0
:10005000594100085B410008C5410008C34200083F
:100060001D430008354300084D4300087543000850
:1000700077430008794300087B4300087D4300086C
:100080007F4300088143000883430008854300083C
:1000900087430008894300088B4300088D4300080C
:1000A000D7430008D943000811440008134400084E
:1000B0001B440008F9440008C3450008FB4500083C
:1000C000FD450008FF4500080146000803460008FA
:1000D000054600080746000837460008674600083E
:1000E000954600080B4700080D47000800F002F88D
:1000F00000F064F80AA090E8000C82448344AAF15E
:100100000107DA4501D100F059F8AFF2090EBAE85B
:100110000F0013F0010F18BFFB1A43F0010318473B
:10012000A8BE0000C8BE00000A444FF0000C10F842
:10013000013B13F0070408BF10F8014B1D1108BF65
:1001400010F8015B641E05D010F8016B641E01F805
:10015000016BF9D113F0080F1EBF10F8014BAD1C55
:100160000C1B09D16D1E58BF01F801CBFAD505E073
:1001700014F8016B01F8016B6D1EF9D59142D6D3CD
:10018000704700000023002400250026103A28BFF5
:1001900078C1FBD8520728BF30C148BF0B607047F9
:1001A00064290AF0EB8673290BF0E3800020704786
:1001B0001FB50AF034FF1FBD10B510BD0BF0DDF800
:1001C0001146FFF7F5FF02F00DFD0BF0FBF803B44D
:1001D000FFF7F2FF03BC02F0CFFB00000B49D1F8A0
:1001E00000C04A685CF8043B1068184442F8040BED
:1001F0008C4528BFA1F1DC0C8A4228BFA1F1DC02AA
:10020000C1F800C04A6020F0004070475C3C00200C
:1002100030BF704720BF704740BF7047BFF36F8F3C
:100220007047BFF34F8F7047BFF35F8F704701DF99
:100230007047EFF31480704780F31488BFF36F8F1B
:100240007047EFF30980704780F309887047EFF338
:100250000880704780F30888704772B6704762B6AE
:10026000704771B6704761B6704780F31188704768
:10027000EFF31280704740BA704700BA7047000031
:100280000348004703480449044A054B70470000EF
:10029000ED000008C83C0020C8420020C83E0020F5
:1002A000C83E002010B5012000F048FFBDE8104016
:1002B000002000F043BF1D49086070471B49091F1B
:1002C000086070471949843108607047184A1188DE
:1002D00021F46071014311807047154A118821F0A3
:1002E0007F01014311807047124A1044A0F8001C9E
:1002F000704710490844B0F8000C70470B489C3018
:100300000068C0B270470A480830018841F0010116
:10031000018070470548A0300068C0B270470448AB
:100320000830018841F002010180704704860D42C7
:100330002C6C0040006000403B4900200860091D13
:100340000860091D0860091D0860374937481431E5
:100350000860704730B58279354C0168002A2FD08B
:10036000314A13688B431360111D0A6803689A436E
:100370000A6001792144D1F8002403681A43C1F8C6
:100380000024294B083319680268914319601A1D2B
:1003900011680568A94311604179102907D02144EB
:1003A000D1F8002400680243C1F8002430BD196868
:1003B000046821431960116800680143116030BD71
:1003C00000792044D0F800248A43C0F8002430BDCE
:1003D0000021016001710C22427181717047124944
:1003E00010310A6802430A607047014600200E4A35
:1003F000143212680A4200D0012070470A491431B1
:100400000860704701460020074A12680A40064B00
:1004100014331B680B4202D0002A00D00120704721
:10042000014914310860704700040140FFFF0700D4
:1004300000000140F8490A6802F038020A600A68C0
:1004400002430A607047F4490A6822F008020A6011
:100450000A6802430A607047EF490A6822F01002F6
:100460000A600A6802430A607047EB48EB49416042
:10047000EB4941607047E848016941F08001016142
:1004800070470420E449CA68D20701D001207047B0
:10049000CA68520701D502207047C968C906FBD552
:1004A0000320704708B5FF20009002E00098401E2E
:1004B000009000980028F9D108BD10B50446FFF758
:1004C000E0FF04E0FFF7EEFFFFF7DBFF641E01280B
:1004D00001D1002CF6D1002C00D1052010BD70B543
:1004E000054640F6FF763046FFF7E7FF042813D1B4
:1004F000C94C206940F0020020616561206940F02C
:10050000400020613046FFF7D8FF012804D0216960
:1005100041F6FD721140216170BD70B540F6FF7566
:100520002846FFF7CAFF042812D1BB4C206940F0CF
:1005300004002061206940F0400020612846FFF758
:10054000BCFF012804D0216941F6FB7211402161F2
:1005500070BD70B540F6FF752846FFF7AEFF042862
:1005600018D1AD4CAD48A060AD48A060206940F006
:1005700020002061206940F0400020612846FFF7FC
:100580009CFF41F6EF75042805D0012802D02169AF
:100590002940216170BD206941F6DF71084020616A
:1005A000206940F0100020619E49A52008800F209E
:1005B000FFF783FF0128EDD021692940216170BD3B
:1005C0002DE9F04106460D460F20FFF776FF04287F
:1005D00011D1914C206940F00100206135800F203D
:1005E000FFF76BFF41F6FE77042806D0012802D002
:1005F000216939402161BDE8F081280C70800F200D
:10060000FFF75BFF0128F6D0216939402161F2E74D
:1006100070B506460D460F20FFF74FFF04280FD197
:100620007D4C206940F00100206135800F20FFF7EC
:1006300044FF012804D0216941F6FE721140216176
:1006400070BD70B506460D460F20FFF736FF042833
:1006500013D1714C7148A0607148A060206940F0CE
:100660001000206135800F20FFF727FF012804D0FC
:10067000216941F6EF721140216170BD2DE9F04111
:10068000C043C4B2C0F30725C0F30746070E0F20CE
:10069000FFF713FF0428AED1DFF87C815F49C8F86B
:1006A00008105F49C8F80810D8F8101041F0100180
:1006B000C8F81010FF2C05D05A48083004800F20CD
:1006C000FFF7FBFE042807D1FF2D05D055480A305F
:1006D00005800F20FFF7F1FE042807D1FF2E05D07B
:1006E00050480C3006800F20FFF7E7FE042807D1A2
:1006F000FF2F05D04B480E3007800F20FFF7DDFE9F
:10070000012806D0D8F8101041F6EF721140C8F851
:10071000101070E770B5054640F6FF763046FFF7DB
:10072000CCFE042818D13C4C3C48A0603C48A0605A
:10073000206940F020002061206940F040002061E5
:100740003046FFF7BAFE41F6DF71042805D00128D4
:1007500002D022690A40226170BD206908402061F0
:10076000206940F0100020612E4815B10021018061
:1007700001E0A52101803046FFF79FFE0128EBD064
:10078000216941F6EF721140216170BD2DE9F04100
:1007900005460E461746204C2048A0602048A06021
:1007A0000F20FFF78AFE042814D1206940F01000C2
:1007B000206135431B493D43891C45F0F800088002
:1007C0000F20FFF77AFE012804D0216941F6EF726D
:1007D000114021610FE71048C069800870470E483A
:1007E000006A704700200C49C969890700D50120BB
:1007F0007047002008490968890600D50120704724
:10080000054A002903D0116901431161704711693C
:1008100081431161704700000020024023016745B9
:10082000AB89EFCD00F8FF1F01460020074A0129E0
:1008300004D0D2680A42EDD00120EBE7D169C907A4
:10084000E8D00120E6E70149C860E3E70020024064
:1008500010B5964A811A1315D414904237D010DC83
:10086000934940181FD0984227D0A0424DD1012172
:10087000102000F04DFC0021BDE81040102000F0D9
:1008800047BC99422DD0A14235D0B1F5406F3CD143
:1008900001210C02204600F03BFC2046BDE8104040
:1008A000002100F035BC0121042000F031FC0021C2
:1008B000BDE81040042000F02BBC0121082000F00E
:1008C00027FC0021BDE81040082000F021BC0121D8
:1008D000202000F01DFC0021BDE81040202000F089
:1008E00017BC0121402000F013FC0021BDE810409E
:1008F000402000F00DBC0121802000F009FC002107
:10090000BDE81040802000F003BC10BD10B50121EF
:10091000084600F0FDFB0021BDE81040012000F07A
:10092000F7BB2DE9F0430022CC7804F00F03E40676
:1009300001D58C7823430C784FF00F0714F0FF0F8C
:100940004FF0010C1BD005680CFA02F40E8826400B
:10095000A64210D1960007FA06F825EA080503FA20
:1009600006F848EA0505CE78282E00D14461CE78F5
:10097000482E00D10461521C082AE5D305600A887C
:10098000FF2A1ED94568002202F108060CFA06F477
:100990000E882640A64210D1960007FA06F825EAEE
:1009A000080903FA06F545EA0905CE78282E00D194
:1009B0004461CE78482E00D10461521C082AE3D34A
:1009C0004560BDE8F0834FF6FF7101800221817020
:1009D0000421C17070470246002092680A4200D08C
:1009E00001207047806880B2704702460020D268BC
:1009F0000A4200D001207047C06880B27047016190
:100A0000704741617047002A01D001617047416120
:100A10007047C160704741F48032826181618261B8
:100A200081698069704710B5224B1A684FF680744F
:100A3000224042EA00100843186010BD1E49C861F8
:100A40007047F0B51B4D6B68C0F30342440D26019F
:100A500084B2C0F30157B440032F07D0C0020CD5B5
:100A600003209040834343F0706209E023F07062FA
:100A7000686820F07060686002E0A34343F0706231
:100A800001B122436A60F0BD10B58A07120F0F232F
:100A9000934021F00304074921448C689C438C60F7
:100AA0008B68904003438B6010BD00000014014030
:100AB00000F8FEBF00000140000020420D49086020
:100AC00070470C49486070470A4988607047094977
:100AD0004AF6AA200860704706494CF6CC400860E8
:100AE000704701460020034AD2680A4200D0012024
:100AF00070470000003000400020BB49421E0A60E1
:100B000013094B60C1F80021C1F8043100218200B3
:100B100002F1E022C2F80014401C0F28F7D37047FE
:100B20000020B24A4FF0206111600021121D1160B7
:100B3000AE4BAF4A08331A601A1D1160121D1160C6
:100B4000820002F1E022C2F8181D401C0328F7D3EE
:100B5000A64820300160A549401724310860091DCE
:100B60000860091D08607047A14908439F49083182
:100B70000860704770B50F24C27801260178002AFA
:100B80002BD09A4A0832126802F4E062C2F5E062A1
:100B9000120AC2F10403D44045789D408278224075
:100BA0002A4314018A07D30E9C4021F0030202F16C
:100BB000E022D2F80054FF2199408D430C40254398
:100BC000C2F80054007800F01F018E4040098000F8
:100BD00000F1E020C0F8006170BD01F01F00864008
:100BE0004809800000F1E020C0F8806170BD00215C
:100BF000017041708170C1707047FFF72EBBFFF725
:100C00002EBBFFF72EBBFFF72EBB0001FFF72DBB5E
:100C1000FFF72EBB75480068C0F3093070470146E6
:100C2000002001F01F0301229A404909890001F1C7
:100C3000E021D1F800128A4300D1012070476D49AC
:100C40000860704700F01F020121914040098000B8
:100C500000F1E020C0F88012704764480068C0F3DB
:100C6000090070470146002001F01F0301229A404D
:100C70004909890001F1E021D1F800138A4300D12C
:100C8000012070475948001F006870475A4A1140B8
:100C900001435648001D0160704755485349001DE7
:100CA00008310860704752485049401C08310860BC
:100CB00070474E4A0C32002903D01168014311607D
:100CC0007047116881431160704700F01F020120D6
:100CD0009040464A2032002903D011680143116038
:100CE0007047116881431160704730B5FF243F4B56
:100CF00008331B6803F4E063C3F5E0631B0AC3F128
:100D00000405DC40A94022400A43110100F0C00262
:100D10009309C0F30120C0008140FF228240980067
:100D200000F1E02000F61850036893430360026866
:100D30000A43026030BD01460020890A01F00F021B
:100D400001219140294A203212680A408A4200D18A
:100D50000120704700F01F0024490B6801228240E7
:100D600013430B60704700F01F0020490A68401EC3
:100D7000012383401A430A60704701460020C1F3F3
:100D8000833201219140194A203212680A408A4276
:100D900000D101207047C0F38142C0F30151002A05
:100DA00005D0012A07D011482C30006870470F4841
:100DB0002830006870470D4824300068CA00D040D1
:100DC000022902D000F00F007047C0B27047C0F394
:100DD0008050002803D0054834300068704703482D
:100DE000303000687047000080E100E004ED00E072
:100DF0000000FA0500EF00E080FFFF1F10B50121A1
:100E00000C07204600F08FF92046BDE81040002175
:100E100000F089B91F49086270471E490861704790
:100E20001D4A116821F0E001014311607047194922
:100E3000A03108607047184B1A6822F00302024381
:100E40001A601648026842F004020260012901D0CB
:100E5000FFF7E0B9FFF7DCB90F48016841F0040182
:100E60000160016841F0020101600C48016841F035
:100E700004010160FFF7CCB901460020064A526820
:100E80000A4200D00120704703490A6842EA800004
:100E90000860704700000E420070004010ED00E056
:100EA000B448016841F0010101604168B24A114053
:100EB00041600168B14A11400160016821F480215C
:100EC0000160416821F4FE014160002181607047AA
:100ED000A8490A6822F480320A600A6822F4802253
:100EE0000A60B0F5803F07D0B0F5802F03D10868C5
:100EF00040F4A02008607047086840F48030086023
:100F000070470346002059099A4A01290AD002294C
:100F10000AD0516A03F01F02012393400B4200D014
:100F2000012070471168F5E7116AF3E730B5944C7A
:100F300040F2FF153120FFF7E4FF20706068401C8D
:100F40006060207810B96068A842F3D13120FFF7C3
:100F5000D8FF08B1012030BD002030BD854A11689E
:100F600021F0F80141EAC00010607047854908602F
:100F70007047804B5A6822F47C1208431043586033
:100F800070478049086670477A4A516821F003012A
:100F90000143516070477748406800F00C0070478B
:100FA000744A516821F0F001014351607047714A61
:100FB000516821F4E0610143516070476D4A516806
:100FC00021F4605141EAC00050607047694A00292D
:100FD00003D0517A014351727047517A8143517263
:100FE00070476849D83108607047624A516821F4F7
:100FF00040410143516070475E49002220310A7030
:1010000001F82029012805D0042802D1052081F803
:1010100020007047012081F8200070475A4908607D
:10102000704754490A6A02430A6270475649443974
:101030000860704710B54F4A516801F00C01534BDE
:10104000002927D0042927D0082927D00360516818
:1010500001F0F00109094E4B5C5C0168E140416020
:10106000546804F4E064240A1C5D21FA04F48460EA
:10107000546804F46054E40A1B5DD940C1605268AE
:1010800002F44042920B424B1B1F9A5CB1FBF2F1FF
:10109000016110BD0360DAE70360D8E7516801F42D
:1010A0007011022303EB9141536803F4803333B191
:1010B00053689B0307D5374B59430160C7E7354B4E
:1010C00059430160C3E7314B59430160BFE7294AE7
:1010D000002903D05169014351617047516981432F
:1010E00051617047234A002903D0916901439161FE
:1010F000704791698143916170471E4A002903D06E
:10110000D1690143D1617047D1698143D161704791
:10111000184A002903D0D1680143D1607047D168D3
:101120008143D1607047134A002903D011690143FC
:10113000116170471169814311617047124940394B
:10114000086070470F49C86470470A49C871704702
:101150000848416A41F080714162704701460020B1
:10116000044A92680A4200D00120704701498872FF
:1011700070470000001002400000FFF8FFFFF6FE7D
:1011800000000020000042428004424200127A0027
:10119000B8BC000800093D00434A002903D011886B
:1011A00001431180704711888143118070473E4888
:1011B000001D018841F01001018070473A48001D70
:1011C000018821F010010180704737481C300088E9
:1011D00035491831098840EA0140704700B5024698
:1011E000FFF7E5FF3049100C18310880081D028018
:1011F0005DF804EBE2E700B50246FFF7D8FF2A49A5
:10120000C2F3034008310880081D02805DF804EB3A
:10121000D4E700B50246FFF7CAFF2349100C20317E
:101220000880081D02805DF804EBC7E71E481030F7
:1012300000880007010B1C481430008808437047E1
:101240001948001D01888906FCD570471648001D05
:10125000018821F00801018001880907FCD5704749
:1012600001460020104A121D12880A4200D00120B7
:1012700070470D49091D0A8882430A8070470A4950
:10128000091D0988C2B21140074A1288024202D0E1
:1012900009B101207047002070470349091D0A88E1
:1012A00082430A8070470000002800404FF0E02190
:1012B000042804D0086920F0040008617047086918
:1012C00040F00400086170474FF0E021486170472A
:1012D0004FF0E021012804D0801C07D00020886155
:1012E0007047086940F0010008617047086920F004
:1012F0000100086170474FF0E021002804D0086920
:1013000040F0020008617047086920F0020008619F
:1013100070474FF0E0208069704702460020D108F6
:101320004FF0E023022906D0D969012393400B42F4
:1013300000D0012070471969F7E7000010B5FE4A98
:10134000811A1315D41490424FD013DCB0F1804FA2
:101350002DD0FA49401834D098423CD0A04258D100
:1013600001210820FFF7DFFE0021BDE81040082022
:10137000FFF7D9BE994242D0B1F58E3F0DD0B1F5FD
:10138000923F46D101214C032046FFF7C1FE204683
:10139000BDE810400021FFF7BBBE01212046FFF74A
:1013A000B7FE2046BDE810400021FFF7B1BE012185
:1013B0000846FFF7B8FE0021BDE810400120FFF706
:1013C000B2BE01210220FFF7AEFE0021BDE81040B1
:1013D0000220FFF7A8BE01210420FFF7A4FE002190
:1013E000BDE810400420FFF79EBE01211020FFF74A
:1013F0009AFE0021BDE810401020FFF794BE0121A5
:101400002020FFF790FE0021BDE810402020FFF7CC
:101410008ABE10BD028802F08F020280CA884B8803
:101420001A4303881A4302808A8882850A880285C3
:1014300001228282C24A904202D0C24A904201D125
:10144000097A0186704730B5028C22F001020284CD
:10145000058C8388028B22F070020C88144325F0DF
:1014600002020D8915434A882A43CD888586B44DEA
:10147000A84202D0B34DA8420FD122F008054A89F4
:101480002A4322F004058A882A4323F4014323F4E3
:1014900002438D891D43CB892B43838004830284BF
:1014A00030BD70B5028C22F010020284028C838859
:1014B000048B24F4E0460D884FF6FF7404EA0525FA
:1014C000354322F020020E8904EA061616434A88A4
:1014D00004EA02123243CE880687994EB04202D007
:1014E000984EB04217D122F080024E8904EA0616C7
:1014F000164326F040068A8804EA0212324323F497
:10150000044323F408438E8904EA86061E43C989EE
:1015100004EA8103334383800583028470BD70B580
:10152000028C22F480720284028C8388848B24F0E3
:1015300070040D88254322F400720E894FF6FF7463
:1015400004EA062616434A8804EA02223243CE8879
:1015500086877B4EB04202D07A4EB04217D122F439
:1015600000664A8904EA0222324322F480668A88AD
:1015700004EA0222324323F4104323F420438E89E9
:1015800004EA06161E43C98904EA01133343838023
:101590008583028470BD70B5028C22F4805202846F
:1015A000058C8288838B23F4E0460C884FF6FF730A
:1015B00003EA0424344325F400560D8903EA053573
:1015C00035434E8803EA06362E43CD88A0F84050B6
:1015D0005B4DA84202D05B4DA84205D1C2F30D0578
:1015E000898903EA81122A4382808483068470BD3C
:1015F000828B22F440628283828B4FF6FF7303EA70
:1016000001210A4382837047F0B5048C24F480548E
:101610000484878B068C4FF6FF7404EA013527F4A7
:10162000734704EA022104EA03321143394326F4E2
:1016300000522A4342F4805281830284F0BD828B9F
:1016400022F00C028283828B0A4382837047F0B5BA
:10165000048C24F480740484868B058C4FF6FF7709
:1016600007EA012426F0F30607EA03111143314388
:1016700025F40072224342F4807281830284F0BD1B
:10168000028B22F440620283028B4FF6FF7303EA5F
:1016900001210A430283704770B5048C24F01004C2
:1016A0000484058B068C4FF6FF7404EA011125F4BF
:1016B000734504EA03332B4304EA02221A4326F05B
:1016C00020030B4343F010010283018470BD028BA1
:1016D00022F00C020283028B0A430283704770B52A
:1016E000048C24F001040484058B048C25F0F3059C
:1016F0004FF6FF7606EA031313432B4324F002024E
:101700000A4342F001010383018470BD70B50646AF
:101710000C4625886188A2882389002D14D0042DC9
:101720001AD0082D20D03046FFF76EFFE1883046F2
:10173000BDE870405CE700000010004000FCFFBF07
:10174000002C0140003401403046FFF7C8FFE1881B
:101750003046BDE87040BAE73046FFF79DFFE188AC
:101760003046BDE870408BE73046FFF770FFE188F8
:101770003046BDE8704062E72DE9F04107460C466F
:10178000002501266188002900D10225A288012AAE
:1017900000D102262088238988B13846FFF77CFFD4
:1017A000E1883846FFF76CFF2389324629463846E0
:1017B000FFF795FFE1883846BDE8F04187E73846F6
:1017C000FFF78DFFE1883846FFF781FF2389324616
:1017D00029463846FFF760FFE1883846BDE8F0410A
:1017E0004EE710B50A884B88CC881A438B88234370
:1017F0001A430B891A434B8989891A430A43A0F873
:10180000442010BD4FF6FF71818000210180C1800E
:101810004180017270470021018041808180C18038
:10182000018141818181C181704700210180418016
:1018300001228280C18001817047002101804180A6
:101840008180C1800181418181817047002904D05C
:10185000018841F0010101807047018840F2FE32A9
:10186000114001807047002905D030F8441F41F431
:1018700000410180704730F8441FC1F30E01018020
:101880007047002A03D082890A4382817047828987
:101890008A4382817047818270471143A0F84810C3
:1018A0007047002A03D082890A4382817047828967
:1018B0008A4382817047018921F0070101817047C5
:1018C000028922F070020A430281704700B5034684
:1018D0001846FFF7F5FF188940F00700188100BD92
:1018E00070B50D4604461146602D0CD001222046ED
:1018F000FFF7F5FE29462046FFF7E2FF208940F07A
:101900000700208170BD01222046FFF7C5FEF1E7E8
:1019100010B50489E4B211434FF6FF7202EA0322C4
:1019200011432143018110BD10B504462046FFF745
:10193000EFFF208920F0070040F0070020F0700042
:1019400040F07000208110BD10B504462046FFF71E
:10195000DFFF208940F48040208110BD0185828214
:101960007047028840F28F331A400A430280704762
:1019700070B50589048B068C25F007050D434FF6DD
:10198000FC410C4040F201110C4326F022064FF6B8
:10199000FF7101EA0311114331430581048301847E
:1019A00070BD028B22F070020A4302837047028BE3
:1019B00022F4E0424FF6FF7303EA01211143018351
:1019C0007047828B22F070020A4382837047828BB9
:1019D00022F4E0424FF6FF7303EA012111438183B1
:1019E0007047002904D0018841F0800101807047D0
:1019F000018840F27F32114001807047002904D0F5
:101A0000818841F0040181807047818821F00401C0
:101A100081807047002904D0818841F008018180CD
:101A20007047818821F0080181807047002904D027
:101A3000818841F0010181807047818821F0010196
:101A400081807047028B22F008020A4302837047AC
:101A5000028B22F400624FF6FF7303EA0121114367
:101A600001837047828B22F008020A438283704709
:101A7000828B22F400624FF6FF7303EA01211143C7
:101A800081837047028B22F004020A43028370476D
:101A9000028B22F480624FF6FF7303EA01211143A7
:101AA00001837047828B22F004020A4382837047CD
:101AB000828B22F480624FF6FF7303EA0121114307
:101AC00081837047028B22F080020A4302837047B1
:101AD000028BC2F30E024FF6FF7303EA012111439A
:101AE00001837047828B22F080020A438283704711
:101AF000828BC2F30E024FF6FF7303EA01211143FA
:101B000081837047028C22F002020A4302847047EC
:101B1000028C22F008020A4302847047028C22F0F1
:101B200020024FF6FF7303EA01111143018470474D
:101B3000028C22F080024FF6FF7303EA0111114379
:101B400001847047028C22F400724FF6FF7303EA9F
:101B50000121114301847047028C22F400624FF688
:101B6000FF7303EA0121114301847047028C22F4C0
:101B700000524FF6FF7303EA0131114301847047AD
:101B800010B5038C01248C40A3430384038C8A404A
:101B90001343038410BD10B5038C04248C40A3436D
:101BA0000384038C8A401343038410BD10B5038C57
:101BB00001248C40A3430384002910D008290ED0AF
:101BC000091FC1F34E010844816948F6FF731940AB
:101BD00081614FF6FF7101EA0221816110BD00EBC6
:101BE000510081694FF68F7319408161826110BD88
:101BF000002904D0018841F002010180704701886A
:101C000040F2FD32114001807047002904D0018864
:101C100041F0040101807047018840F2FB3211401D
:101C200001807047002904D0818841F080018180C3
:101C30007047818821F0800181807047028840F2DE
:101C4000F7331A40028002880A4302807047828874
:101C500022F07002828082880A4382807047028963
:101C600022F00702028102890A4302817047028939
:101C700022F08002028102890A4302817047818436
:101C800070478185704781867047018770478187DB
:101C90007047A0F8401070470288D2B202800288D4
:101CA0000A4302807047808E7047008F7047808F94
:101CB0007047B0F840007047808C7047008D7047C7
:101CC00002460020128A0A4200D001207047C94310
:101CD0000182704702460020138A0B4092890A4015
:101CE000002B02D0002A00D001207047C943018296
:101CF0007047000010B5C64A811A131590422BD0C8
:101D00000FDCC44940181CD098423BD101218C04FF
:101D10002046FFF708FA2046BDE810400021FFF7F3
:101D200002BA994223D0B1F56C4F2BD101218C031B
:101D30002046FFF7EDF92046BDE810400021FFF7EF
:101D4000E7B901214C042046FFF7EDF92046BDE834
:101D500010400021FFF7E7B90121CC042046FFF72E
:101D6000E2F92046BDE810400021FFF7DCB901216F
:101D70000C052046FFF7D7F92046BDE810400021AA
:101D8000FFF7D1B910BD30B585B004460D46208AA5
:101D90004CF6FF710840E98801432182A1894EF683
:101DA000F3100140A8882A8910436A890A43104326
:101DB000A081A08A4FF6FF410840A9890143A18272
:101DC0006846FFF737F99448844201D1039800E050
:101DD000029800EBC00101EB001029688900B0FBFC
:101DE000F1F06423B0FBF3F109010A096FF0180563
:101DF0006A4300EB8200322202EB0010B0FBF3F0EA
:101E000000F00F000843208105B030BD4FF416519B
:101E1000016000218180C18001810C224281818189
:101E2000704710B5038A4FF2FF0213400A884C88AE
:101E300022438C88C9880C4322431A43028210BD76
:101E40000021018041808180C1807047002904D039
:101E5000818941F4005181817047818921F40051C9
:101E60008181704710B5C1F3421301F01F040121B5
:101E7000A140012B07D0022B07D014303AB10268E1
:101E80000A43026010BD0C30F8E71030F6E7026834
:101E90008A43026010BD002A03D0828A0A438282EC
:101EA0007047828A8A4382827047028A22F00F0238
:101EB0000282028A0A4302827047828922F4006207
:101EC000828182890A4382817047002904D08189F6
:101ED00041F0020181817047818921F002018181F5
:101EE0007047028A22F020020282028A0A4302829A
:101EF0007047002904D0018A41F480410182704773
:101F0000018A21F4804101827047C1F30801818078
:101F100070478088C0F308007047818941F0010153
:101F200081817047028BD2B20283028B42EA012187
:101F300001837047028B02F47F420283028B0A43C3
:101F400002837047002904D0818A41F020018182F8
:101F50007047818A21F0200181827047002904D0D6
:101F6000818A41F0100181827047818A21F010013D
:101F700081827047002904D0818A41F00801818262
:101F80007047818A21F0080181827047828A22F09D
:101F900004028282828A0A4382827047002904D026
:101FA000818A41F0020181827047818A21F0020119
:101FB000818270470246002012880A4200D0012028
:101FC0007047C9430180704770B50024C1F34213C4
:101FD00001F01F05012606FA05F2012B0CD0022B99
:101FE0000DD0838A1340090A8E40008830400BB11F
:101FF00000B10124204670BD83891340F3E7038AB2
:102000001340F0E70A0A01219140C943018070475B
:10201000004C004000BCFFBF003801404FF480512D
:10202000F748FEF7EEBC4FF48051F548FEF7E7BCE9
:1020300008B54FF40040ADF8000003208DF8020011
:1020400010208DF803006946ED48FEF76AFC08BDD4
:1020500008B54FF40040ADF8000048208DF80300AB
:102060006946E748FEF75DFC08BD2DE9F0410546ED
:10207000FFF7DEFF0024E24E4FF4004877142806F5
:1020800004D541463046FEF7BAFC03E041463046EF
:10209000FEF7B7FC00BF39463046FEF7B0FC00BF84
:1020A000072C03D239463046FEF7ABFC6806050E16
:1020B000641CE4B2082CE2D3FFF7CAFF394630466D
:1020C000BDE8F041FEF79DBC10B5FFF7A7FF7020FB
:1020D000FFF7CBFFBDE81040A5E710B5FFF79EFF67
:1020E0006020FFF7C2FFBDE810409CE710B5FFF786
:1020F00095FFE020FFF7B9FFBDE8104093E72DE919
:10210000F047FFF7A5FF0025BD4E4FF400494FF003
:102110000108771449463046FEF75DFC90B108EBA4
:102120004400C4B239463046FEF769FC00BF394668
:102130003046FEF766FC6D1CEDB2082DEAD3204652
:10214000BDE8F0876006040EECE72DE9F041054696
:10215000FFF764FF2020FFF788FF0024285DFFF7CA
:1021600084FF641CE4B2042CF8D3FFF75CFFFFF794
:1021700055FFA020FFF779FFFFF7C1FF0446FFF7E7
:10218000BEFF0646FFF7BBFF0746FFF7B8FF2978FB
:10219000A14200D0FEE76978B14200D0FEE7A978FD
:1021A000B94200D0FEE7E978814200D0FEE700BFE7
:1021B000BDE8F04137E72DE9F04706460D46FFF749
:1021C00037FFFFF72BFF0024DFF834824FF400497C
:1021D0004FF40057300604D549464046FEF70FFC41
:1021E00003E049464046FEF70CFC39464046FEF700
:1021F00006FC00BF39464046FEF703FC7006060E9B
:10220000641CE4B2082CE5D300BF00244FF6FF762F
:10221000280404D549464046FEF7F1FB03E0494651
:102220004046FEF7EEFB39464046FEF7E8FB00BFAE
:102230000F2C03D239464046FEF7E3FB06EA45057C
:10224000641CE4B2102CE3D3FFF702FF394640468A
:10225000FEF7D7FBBDE8F047E5E670B569490A78B7
:10226000012101EB4004002A0BD0674D35F8201006
:102270000120FFF7A0FF35F81410BDE870400220E0
:1022800099E7614D0C3535F820100120FFF793FFD9
:1022900035F81410BDE8704002208CE72DE9F047B6
:1022A0000446FFF7C5FEFFF7B9FE44F080060024A0
:1022B000DFF84C814FF4004A4FF40057300604D544
:1022C00051464046FEF79BFB03E051464046FEF771
:1022D00098FB00BF39464046FEF791FB00BF072C34
:1022E00003D239464046FEF78CFB7006060E641C8E
:1022F000E4B2082CE2D3FFF7ABFE4646394630463F
:10230000FEF77FFB00BF00244FF6FF784FF0010976
:1023100051463046FEF75FFB98B109EB450085B2A8
:1023200039463046FEF76BFB00BF39463046FEF7B4
:1023300068FB641CE4B2102CEAD3FFF774FE284655
:10234000FEE608EA4505EBE710B50C46012101EB76
:10235000003081B20520FFF72EFF2146BDE8104076
:10236000062028E710B5012101EB003081B20520DD
:10237000FFF721FFBDE8104006208FE7FEE710B50C
:1023800041F6C2010F20FFF716FF41F602040F20AD
:10239000FFF784FF20400028F9D10E20FFF77EFFD1
:1023A000C0F3001008B1FFF7E9FF41F299010120E5
:1023B000FFF701FF42F214010220FFF7FCFEC421E7
:1023C0000F20FFF7F8FE0F20FFF768FF00F0040072
:1023D0000028F8D10E20FFF761FFC0F3002000288D
:1023E00001D0FFF7CBFF10BD10B54FF401410A201B
:1023F000FFF7E1FEC121BDE810400F20DBE6000041
:10240000000C01400800002080BD000870B50024C9
:10241000D64D35F8240081B22046FFF7CCFE641C6F
:10242000E4B2102CF5D30024D04D403535F824000B
:1024300081B22046FFF788FF641CE4B20D2CF5D36F
:1024400070BDF8B5CAA000680090CA4E0024347070
:10245000FFF7E9FD4FF40051C748FEF7D2FAC74D28
:10246000EC70AC70FFF730FE4FF440610D20FFF7C9
:10247000A2FE782001F088FC4DF681110920FFF7BB
:1024800063FFFFF7C3FFFFF7AFFF642001F07CFCA1
:102490006846FFF75AFEFFF772FF287820B941F629
:1024A00097010820FFF787FE6C70B0484438007829
:1024B000FFF7D3FE01203070F8BDB0480078002847
:1024C00003D041F69501082075E641F697010820F2
:1024D00071E670B5FFF701FEFFF7A0FD4020FFF7A2
:1024E000C4FD0024A14D413D285DFFF7BEFD641CE5
:1024F000E4B2402CF8D3BDE8704094E570B50546D1
:102500000E46FFF7EAFDFFF789FD4020FFF7ADFD1E
:10251000002404E0285DFFF7A8FD641CE4B2B44287
:10252000F8D3BDE870407EE544F278010F2042E622
:1025300044F268010F203EE670B506460D468F4C0A
:10254000A088401CA080A078A84205D0681E81B257
:102550000B20FFF730FEA570FFF7C8FDFFF75EFD0B
:10256000C020FFF782FD002404E0FFF7C8FD3055CE
:10257000641CE4B2AC42F8D3BDE8704053E52DE9E9
:10258000F0410546FFF754FDFFF748FD00247A4E61
:102590004FF400487714280604D541463046FEF72C
:1025A0002EFA03E041463046FEF72BFA00BF3946CB
:1025B0003046FEF724FA072C03D239463046FEF7A0
:1025C00020FA6806050E641CE4B2082CE3D3FFF77A
:1025D0003FFD39463046FEF714FABDE8F04122E5EA
:1025E00070B54FF4FF7466490870664D0720287077
:1025F0000220FDF7F4FE287801E0641EA4B2002852
:1026000001D0002CF9D170BD70B50024FFF7E8FFB0
:102610005D4D4FF47A7605E0B44206D2012001F018
:10262000B3FB641C28780028F6D029780020012903
:1026300002D02870FF2070BD2870002070BD10B53A
:102640005049062008701020FFF799FF0A2001F07A
:102650009BFB4A490320C87010BD70B5FF24494D4B
:10266000062028700220FDF7BAFE287801E0641EDB
:10267000E4B2002801D0002CF9D170BD70B5054638
:102680001420FFF77CFF1820FFF779FFC8243F4E86
:1026900002E0012001F078FB01213046FEF79BF9B2
:1026A00010B9641EA4B2F4D2344C0120E070A078BA
:1026B000A84205D0681E81B20B20FFF77CFDA570F3
:1026C00070BD70B505460C461420FFF758FF2B4E21
:1026D000B078A04205D0611E89B20B20FFF76BFDD8
:1026E000B47021462846FFF709FF1A20FFF747FF7D
:1026F000C824264D02E0012001F046FB01212846B6
:10270000FEF769F910B9641EA4B2F4D20220F07089
:102710004FF47A6401E0641EA4B201212846FEF75A
:102720005AF908B1002CF6D100BF0CB1002070BDE1
:10273000012070BD70B515464FF4FF74144A106047
:102740000F4801700F4E052030700220FDF747FE44
:10275000317801E0641EA4B209B1002CFAD12846F8
:10276000FFF73EFF0B48007870BD00000CBD00086D
:1027700055AA55AA90000020000C01400800002036
:102780001400002015000020A000002000080140D7
:1027900010000020160000202DE9F34F85B00446FC
:1027A000DFF8108218250326834F4FF480694FF01D
:1027B000040A444526D1012144F20400FEF792FCAC
:1027C0007815ADF810008DF813508DF8126004A93B
:1027D0003846FEF7A6F8ADF810908DF813A004A9BE
:1027E0003846FEF79EF80220ADF8100010208DF854
:1027F000130004A93846FEF794F802213846FEF784
:1028000000F93FE06D484FF0480B84421BD1012195
:102810004804FEF772FC01210420FEF763FCADF8CA
:1028200010A08DF813508DF8126004A93846FEF7F9
:1028300078F80820ADF810008DF813B004A93846D8
:10284000FEF76FF81EE05E4884421BD10121880428
:10285000FEF753FC01210820FEF744FCADF8109070
:102860008DF813508DF81260564D04A92846FEF7D6
:1028700058F8E014ADF810008DF813B004A92846FC
:10288000FEF74FF8069800900020ADF80400ADF870
:102890000600ADF80800ADF80C000C20ADF80A00F9
:1028A00069462046FFF76FFA444500D043480121AE
:1028B0002046FFF7CBFA07B0BDE8F08F10B504460D
:1028C0002046FFF722FB80212046FFF773FB0028FC
:1028D000F9D010BD2DE9F04707460C4615460026F5
:1028E0003448874223D1DFF8D08002214046FEF7EA
:1028F00086F841F6FF79484601F055FA06E014F8EB
:10290000011B3846FFF7DAFF761C6D1E002DF6D14D
:10291000484601F048FA02214046FEF772F808E006
:1029200014F8011B3846FFF7C9FF761C6D1E002DF9
:10293000F6D13046BDE8F0872DE9F041044640F27B
:10294000277739462046FFF73FFB28B13946204616
:10295000BDE8F041FFF756BB40F225573946204607
:10296000FFF732FB002805D039462046BDE8F0418C
:10297000FFF748BBBDE8F081704770B504460F4DC6
:10298000E1B22846FFF7C1FA80212846FFF712FB83
:102990000028F9D0204670BD10B5084C20212046F3
:1029A000FFF708FB0028F9D02046BDE81040FFF7EC
:1029B000B0BA000000380140000801400044004067
:1029C00000480040000C014070B50546FA4C042058
:1029D0006070FA48401B800AA0603520FDF733FF85
:1029E0000020606007E005EB8020FDF778FD607057
:1029F0006068401C6060D4E90101884202D26178BD
:102A00000429F0D070BD10B504463520FDF71BFF3A
:102A1000206810BD2DE9F04105460F469046002480
:102A2000E54E08E057F8241005EB8400FDF7C8FDDB
:102A30007070641CA4B27078042801D14445F1D3AD
:102A40007078BDE8F08110B5FDF70FFDDC4C204635
:102A5000FFF7BAFF0B22DB492046FFF7DBFFD9491E
:102A600004222C31D848FFF7D5FFD64910227C31FB
:102A7000D648FFF7CFFFD34906223A31D448FFF7B3
:102A8000C9FFBDE81040FDF7F6BC70B504460D4621
:102A90002C21CC4808F0BAFBCA4810212C3008F091
:102AA00093FBC84818213A3008F08EFBC54A1460E1
:102AB000200C9080D48042F21070B4FBF0F10A2018
:102AC000B1FBF0F300FB1313B1FBF0F1B1FBF0F439
:102AD00000FB141403EB0413B1FBF0F1B1FBF0F4B1
:102AE00000FB141403EB0423B1FBF0F1B1FBF0F491
:102AF00000FB141403EB04335382B1FBF0F1B1FB80
:102B0000F0F300FB1313B1FBF0F103EB011101F53E
:102B1000005111829560290C9181D5810123137593
:102B20000321517500219175D175117650839083E1
:102B3000D0837820108482F8223082F8231082F823
:102B4000243040F20710D08440F20530108502F1A5
:102B50002C004FF6FF73038041804FF49672C280C1
:102B600005224271CD220271502202720D22427260
:102B700010228272C27A22F0F002103222F00F028A
:102B80000A32C2720E304CF2A80202804FF49974DD
:102B9000448083804FF47F43C380028140F201125E
:102BA00042810222027346F60E22C28148F6A962D1
:102BB000028240F6A172428201754021423008F043
:102BC00003FB8448416E7F487C3088478248016817
:102BD0007C487C3088478148816BBDE870407948EB
:102BE0007C30084708B501F013F801214FF0C050C0
:102BF000FEF783FA01210846FEF774FA01217848AE
:102C0000FDF71FFF01F0EFF801F0D9F84FF416546B
:102C100021467448FFF7C0FD21467348FFF7BCFD0D
:102C200021467248FFF7B8FD01F036F901F003F9CB
:102C300001F088F96E4806F06CFE01F039F801F0F9
:102C4000BEF87D20FEF75DF908B1FEF781FA45F286
:102C50005550FDF733FF0520FDF733FF40F6C41054
:102C6000FDF732FF634900200870FFF7EAFBFDF72C
:102C700033FF01F0A4F8604D4FF40054214628467C
:102C8000FDF7BDFE4FF4967001F09FF821462846EF
:102C9000FDF7B7FE01F093F85848594900780870DD
:102CA000584903200870474DFDF7DFFB5648FFF7F2
:102CB000AAFEDFF80491C9F810005348001DFFF781
:102CC000A2FE524F386000243D4EF02001F05CF827
:102CD00006EB8400FFF797FE45F82400641C0B2CDC
:102CE000F3DB384D2C350024374EF02001F04CF842
:102CF00006EB8400FFF787FE45F82400641C042CD3
:102D0000F3DB304D7C350024304EF02001F03CF8F0
:102D100006EB8400FFF777FE45F82400641C102CB6
:102D2000F3DB284D3A350024294EF02001F02CF831
:102D300006EB8400FFF767FE45F82400641C062CB0
:102D4000F3DBFDF798FBDFF88CB01E48DBF864106E
:102D50007C308847204801681A487C3088471F48E3
:102D6000816B18487C308847D9F810004FF47A718D
:102D7000B0FBF1F00A21B0FBF1F201FB12004000C0
:102D800089F80000102802D9102089F800000026D8
:102D9000094C5434A4F1400534F8161055F82600B7
:102DA000FDF72FFE761C102EF6DB01F008F800264A
:102DB0004FF4FA7840E000001800002000F400080A
:102DC00000F00008CC03002000F1000800F2000829
:102DD00000F3000834020020C40200206801002033
:102DE000000230000038014000440040004800402C
:102DF000343A002008000020001001409900002013
:102E0000980000200B00002000E00008C002002015
:102E100034F8161055F82600FDF7F1FD404600F095
:102E2000D4FF34F8161055F82600FDF7EAFDFDF73B
:102E30004EFE00F0C4FF761C99F800008642E7DBE6
:102E4000D9F81000DFF84084411C02D13968491CD0
:102E500028D0D8F80010814204D1D8F808103A6878
:102E6000914204D03968FFF710FEFFF7ECFDD9F866
:102E7000100001F073FCD9F81000010E00F47F027D
:102E800041EA122100F47F4241EA022141EA006056
:102E9000C9F81000DFF8F4A3FD4E9AF800000128ED
:102EA00007D008E0FB49FC48FFF7EFFDFFF7CBFD3B
:102EB000DDE7706E8047DFF8E493F94F99F8000082
:102EC000012801D1386B80479AF8000001280FD102
:102ED00061886868FDF793FDF06D804720B16188D7
:102EE0006868FDF78CFD03E061886868FDF789FD7F
:102EF00099F8000001280FD161886868FDF77FFD0F
:102F0000B86A804720B161886868FDF778FD03E002
:102F100061886868FDF775FDE2480078012802D1F4
:102F2000DBF8740080470020009098F8153098F87E
:102F30001410024601F084FC01F020FD01F0F8FFBE
:102F40000321417004218170B8F80410090AC1708E
:102F500098F804100171B8F80610090A417198F840
:102F60000610817101F0E4FF411C98F8140006225C
:102F700002F044F80720FFF733FBCB4CCB4D01F0B8
:102F80001CFD2078012801D1286880479AF80000AC
:102F9000012801D1B06E804799F80000012801D1C5
:102FA000786B8047FDF793FD00F009FFE7E700210C
:102FB000B54A7C3232F81130834202D1491C88B2C2
:102FC0007047491C89B22029F4D370472DE9F05F7E
:102FD00001F0AEFF451C01F0ABFF861C0627032065
:102FE000287004203070B2480069C5F80200AD1D99
:102FF000DFF89482DFF8BCB208F1500808F1140A37
:10300000DFF8B49280E0C1EBC10000EB0B040222B8
:10301000A078B2EB501F0DD19B4A23885032138009
:1030200090701AF8010088F80300D4F80300C8F87B
:1030300004005EE00321B1EB501F2ED1B8F8000070
:103040002188884255D1FFF7B2FFA8F80000000A96
:10305000287098F800006870AD1C99F8001098F876
:1030600003001AF801100844400888F80300D4F857
:103070000300C8F80800102208F10201284608F0F1
:103080002CF82088000AA8732078E873103530786F
:10309000123030701237BFB22BE02088FFF787FF65
:1030A000010A2970687099F80000C0EBC00058440C
:1030B0008078A87099F800001AF80000E8702D1DBB
:1030C0000E21284608F080F899F80000C0EBC000F7
:1030D0005844C01C41882980008828812088000A23
:1030E0002873207868730E353078123030701237BC
:1030F000BFB299F80000401CC0B21821B0FBF1F239
:1031000001FB120089F800006C4899F80010007863
:1031100081427FF478AF3846BDE8F09F2DE9F04753
:1031200001F006FF441C01F003FF851C0626032066
:1031300020702046042129705D490969C0F80210F9
:10314000801D0446DFF86C815B4FDFF8709128E04A
:10315000C0EBC000404402228178B2EB511F17D06F
:103160000088FFF724FF010A217060703878C0EBF7
:10317000C00040448078A0703878C0EBC000404464
:103180000079E070241D2878001D2870361DB6B225
:103190003878401CC0B21821B0FBF1F201FB1200DC
:1031A0003870387899F800108842D1D13046BDE89F
:1031B000F08770B5344D95F82400002803D0FFF750
:1031C000ADFF044602E0FFF701FF0446062C08D9D4
:1031D00001F0AEFE411C287D2246BDE8704001F0A2
:1031E0000DBF70BD81780322B2EB511F12D1264969
:1031F0002C314A88002A0DD009880088814203D0EA
:10320000A1F57F40FF3805D11F4807220E212C3041
:10321000FFF790BA70472DE9FC5F0188ADF8001008
:1032200081788DF802100279C07842EA002080B2DD
:1032300001901F4E4FF001085436DFF884A0DFF8EC
:103240004890204DA6F14007B8EB511F3CD04A09E9
:103250003AD00722B2EB511F03D00622B2EB511F26
:1032600070D10024BDF800B007487C3030F814005D
:10327000584503D0A0F57F41FF3970D10A4909783C
:1032800001296DD0A9E00000CC030020A600002099
:10329000240300204E61BC0078563412A7000020A1
:1032A00090030020A2000020A3000020AC01002019
:1032B00018000020880400209900002098000020B9
:1032C000820A0020680100200024BDF800B0F948FF
:1032D00030F81400584503D0A0F57F41FF3962D182
:1032E000F5490978012914D1F449097889B9E11718
:1032F00004EB5171C1F3C70221F00701611A524476
:1033000008FA01F152780A4203D0ED49CA6E012150
:103310009047EC480078844245DA99F8180007286D
:1033200031D2DFE800F00416401E24402A0099F84C
:103330002200012807D036F8141057F82400FDF7B2
:103340005EFB30E032E02B68A0B201220199984781
:1033500029E0AB68A0B201220199984723E054E02C
:1033600026E0AB69A0B20122019998471BE02B6AC5
:10337000A0B201220199984715E02B6BA0B201225F
:10338000019998470FE099F82200012806D036F8F5
:10339000141057F82400FDF732FB04E02B68A0B2AC
:1033A000012201999847641C202C90DBBDE8FC9F0A
:1033B000C249097889B9E11704EB5171C1F3C70219
:1033C00021F00701611A524408FA01F152780A42C9
:1033D00003D0BB49CA6E00219047BA4800788442A6
:1033E00042DA99F8180007282ED2DFE800F0043DF1
:1033F000151B3D21270099F82200012806D036F838
:10340000141057F82400FDF7FCFA2DE02B68A0B249
:1034100000220199984727E02B69A0B20022019968
:10342000984721E0AB69A0B20022019998471BE0C0
:10343000AB6AA0B200220199984715E02B6BA0B2AD
:103440000022019998470FE099F82200012806D040
:1034500036F8141057F82400FDF7D3FA04E02B686F
:10346000A0B2002201999847641C202CFFF6FCAE04
:103470009CE7002070472DE9FC5F04460F46164686
:1034800000200190B81920280BD9FF2F02D9B0F5E0
:10349000887F06D9B7F5805F72D341F21001884268
:1034A0006ED8844DDFF81CB27C3D05F13A0905F178
:1034B0002C0A4FF00008002B70D0012B6FD140E395
:1034C000152F6DD00EDC152F6BD2DFE807F0252B02
:1034D00031373E454C535A616B7279818990979F81
:1034E000A7B5C200B7F5857F71D00ADCA7F580705B
:1034F0000A28E9D2DFE800F0F0EFEEEDECEBEAE9C4
:10350000E8DDA7F580500A28DED2DFE800F0B0B988
:10351000C2C9ECF3FAE8E7E684F80080287D607021
:10352000A41C70E184F80080687D6070A41C6AE1CE
:1035300084F80080A87D6070A41C64E1A888000A5B
:10354000207028796070A41C5DE1E888000A207072
:10355000A8796070A41C56E1288A000A2070287C93
:103560006070A41C4FE1688A000A2070A87C60701B
:10357000A41C48E184F80080E87D6070A41C42E14E
:10358000F1E284F800809BF800006070A41C3AE12E
:1035900084F80080287E6070A41C34E137E1E1E209
:1035A0005EE02CE1688B000A2070A87E6070A41C8D
:1035B00029E1A88B000A2070287F6070A41C22E1FA
:1035C000E88B000A2070A87F6070A41C1BE10FE14B
:1035D000288C000A207095F820006070A41C12E16D
:1035E00084F8008095F822006070A41C0BE184F838
:1035F000008095F823006070A41C04E1E88C000AA8
:10360000207095F826006070A41CFCE0288D000A4C
:10361000207095F828006070A41CF4E0FDF7D5FD3B
:10362000A0F5E140000E2070FDF7CFFDA0F5E140D0
:10363000000C6070A41CE6E0FDF7C7FDA0F5E140BA
:10364000000A2070FDF7C1FDA0F5E1406070A41CE8
:10365000D9E0A889000A2070287B6070A41CD2E001
:10366000E889000A2070A87B6070A41CCBE0BAF83F
:103670000000000A20709AF800006070A41CC2E0EC
:10368000BAF80200000A20709AF802006070A41CC8
:10369000B9E084F800809AF804006070A41CB2E0DD
:1036A000BAF80600000A20709AF806006070A41CA0
:1036B000A9E094E048040020A3000020A801002015
:1036C000AC0100201800002080E076E06EE064E0AD
:1036D0005AE050E046E03CE032E029E01FE017E02D
:1036E0000FE007E0FFE784F800809AF805006070BB
:1036F000A41C88E084F800809AF808006070A41C7C
:1037000081E084F800809AF809006070A41C7AE0D7
:1037100084F800809AF80A006070A41C73E084F8B2
:1037200000809AF80B0000F00F006070A41C6AE0A3
:1037300084F800809AF80B0000096070A41C62E015
:10374000B9F80000000A207099F800006070A41C0D
:1037500059E0B9F80200000A207099F80200607080
:10376000A41C50E0B9F80400000A207099F8040085
:103770006070A41C47E0B9F80600000A207099F8B0
:1037800006006070A41C3EE0B9F80800000A207032
:1037900099F808006070A41C35E0B9F80A00000A26
:1037A000207099F80A006070A41C2CE084F8008056
:1037B00099F80C006070A41C25E0B9F80E00000A0E
:1037C000207099F80E006070A41C1CE0B9F810007D
:1037D000000A207099F810006070A41C13E0B9F87A
:1037E0001200000A207099F812006070A41C0AE010
:1037F00084F8008099F814006070A41C03E004F8B9
:10380000018B04F8018B7F1CBFB2761EB6B2002E6E
:103810007FF456AEEAE140F20311A7F203108F42A3
:1038200072D021DC0D2F70D00ADC0D2F6ED2DFE8B4
:1038300007F03F4F5F6D6D6D6D636D676E76830052
:10384000132F74D006DC0E2F72D00F2F71D0122FD1
:103850005CD191E0B7F5807F6CD0A7F5807001381E
:1038600069D00128F4D1FDE040F6FF62A0F6FF61C7
:10387000904271D014DC05286FD008DC01286DD08F
:1038800002286CD003286BD004283FD117E106280A
:1038900067D0A0F56060FD3879D0012836D18EE080
:1038A000082933D2DFE801F0329AA4A9AEB3B8C137
:1038B0006078A41C287501F06FF8CDF80080002214
:1038C0006B7D297D104600F0BBFF01F057F81AE12F
:1038D0006078A41C687501F05FF8CDF800800022C4
:1038E0006B7D297D104600F0ABFF01F047F80AE13F
:1038F0006078A41CA87506E16078A41CE87502E154
:103900006078A41C2876FEE0B6E01DE0F5E02078A3
:10391000000268836178A41C01436983F3E0207886
:103920000002A8836178A41C0143A983EBE02FE087
:1039300018E01CE082E08BE020780002E8836178E8
:10394000A41C0143E983DEE020780002288461782A
:10395000A41C01432984D6E03BE0BAE096E09FE056
:10396000A8E0C0E06078A41C85F82200CBE0607875
:10397000A41C85F82300C6E020780006CBF80C00D4
:103980006178A41C40EA0140CBF80C00BBE00CE0DD
:103990002078DBF80C1041EA0020CBF80C006178AD
:1039A000A41C0143CBF80C10ADE020780002AAF86B
:1039B00000006178A41C0143AAF80010A3E020785D
:1039C0000002AAF802006178A41C0143AAF80210C0
:1039D00099E06078A41C8AF8040094E02078000242
:1039E000AAF806006178A41C0143AAF806108AE030
:1039F0006078A41C8AF8050085E06078A41C8AF829
:103A0000080080E06078A41C8AF809007BE06078F8
:103A1000A41C8AF80A0076E061789AF80B00A41CCE
:103A200061F303008AF80B006DE061789AF80B00EF
:103A3000A41C61F307108AF80B0064E020780002F0
:103A4000A9F800006178A41C0143A9F800105AE00D
:103A500020780002A9F802006178A41C0143A9F8AB
:103A6000021050E020780002A9F804006178A41C3C
:103A70000143A9F8041046E020780002A9F80600E6
:103A80006178A41C0143A9F806103CE020780002EC
:103A9000A9F808006178A41C0143A9F8081032E0D5
:103AA00020780002A9F80A006178A41C0143A9F853
:103AB0000A1028E06078A41C89F80C0023E0207824
:103AC0000002A9F80E006178A41C0143A9F80E10A9
:103AD00019E020780002A9F810006178A41C0143C5
:103AE000A9F810100FE020780002A9F81200617800
:103AF000A41C0143A9F8121005E0A41CBAF80200A6
:103B000008B1ABF80280DBF80C00010C15D0000402
:103B1000000C12D001210807FDF7EFFA0120FDF794
:103B200079F9FDF78DFBDBF80C0000F5E140FDF7BE
:103B300055FBFDF785FBCBF80C807F1CBFB2761ED2
:103B4000B6B2002E7FF467AEFEF77DFF2A48416EC5
:103B50002A4888472A480168284888472948816BAD
:103B60002648884742E0B7F5005F3DD342F2200186
:103B7000884239D8A7F5005720496BB1012B35D1C0
:103B800019E031F81700000A207011F81700607072
:103B9000A41C7F1C761EB6B2002EF2D126E020783F
:103BA000000221F817006278A41C024321F81720B4
:103BB0007F1C761EB6B2002EF1D1FEF744FF0E48F0
:103BC000416E0E4888470E4801680C4888470D48EA
:103BD000816B0A4888470C480078012806D10B48B9
:103BE000816A0648884701E00120019001983FE47E
:103BF0000120704701207047340200204804002053
:103C0000C402002068010020A3000020AC010020B5
:103C100010B5FDF745F94FF48030FDF759F9FDF780
:103C200085F922490870012812D10020FDF7B8F962
:103C30000020FDF7C3F94FF48060FDF7B8F90220CA
:103C4000FCF7F8FB1020FCF707FC0120FDF79CF9BE
:103C500001210420FDF746FA01210820FDF742FA70
:103C600001211020FDF73EFA0121C802FDF73AFAC2
:103C700001210846FDF741FA01210220FDF73DFA36
:103C80000121BDE810400420FDF737BA10B54FF40C
:103C90008030FDF71DF9FDF749F904490870012846
:103CA00003D1BDE81040FDF76FB910BD91000020B1
:103CB0002DE9F04100214FF00060FCF7E7FF4FF4E1
:103CC000A060FCF751FF2F4C1E202070022666706A
:103CD000A6700125E5702046FCF74CFF1D202070E2
:103CE0006670A570E5702046FCF744FF1C2020702C
:103CF00066700027A770E5702046FCF73BFF19208F
:103D000020706670A770E5702046FCF733FF062030
:103D100020706670A570E5702046FCF72BFF072029
:103D200020706570A570E5702046FCF723FF0A201F
:103D3000207003266670A570E5702046FCF71AFF18
:103D400026706570A770E5702046FCF713FF2520EC
:103D500020706570A770E5702046FCF70BFF2620E9
:103D600020706570A770E5702046FCF703FF2720E0
:103D700020706570A770E5702046BDE8F041FCF743
:103D8000F9BE00009200002030B5A94B1C8844F613
:103D900020611A88121B0A4492FBF1F501FB1522DF
:103DA0008242F6DB30BD01B50098C008009002E009
:103DB0000098401E009000980028F9D108BD9D4849
:103DC000C16881F00401C160704710B5044607E086
:103DD000C820FFF7D9FF641EFFF7F1FFFCF777FE5D
:103DE000002CF5D110BD38B50420ADF8000010202E
:103DF0008DF8030003208DF802008E4C69462046A2
:103E0000FCF78FFD04212046FCF7F9FD38BD38B5DD
:103E10000420ADF8000014208DF8030003208DF875
:103E20000200844C69462046FCF77BFD04212046B5
:103E3000FCF7E5FD38BD7CB501210220FCF724FE2E
:103E40000220009000258DF804500C268DF80560A6
:103E500001248DF806406846FCF77CFA00210846EC
:103E6000FCF712FE00948DF804508DF805608DF873
:103E700006406846FCF76EFA04210220FCF704FEB7
:103E8000102000908DF804508DF805608DF80640E4
:103E90006846FCF75FFA7CBD2DE9F84349F6F0105F
:103EA000ADF8000010248DF8034003258DF8025072
:103EB000614F69463846FCF734FD40F2FD30ADF8FD
:103EC00000008DF803408DF80250DFF870816946DC
:103ED0004046FCF726FD1220ADF8000048208DF882
:103EE0000300544E69463046FCF71BFD6002ADF8F6
:103EF00000008DF803408DF8025069463046FCF70B
:103F000010FD0120ADF8000004268DF8036069461D
:103F10003846FCF706FDA002ADF800008DF80360FE
:103F200069464046FCF7FDFC4BF20200ADF800008C
:103F30008DF802508DF8034069464046FCF7F1FCCD
:103F4000BDE8F8832DE9FE4344F62060ADF8040097
:103F50002725ADF800500024ADF80640ADF802402A
:103F6000334F6946243F3846FDF754FAC820ADF870
:103F70000400ADF80050ADF80640ADF80240DFF89F
:103F8000C08069464046FDF745FA4FF4FA66ADF841
:103F90000460ADF80050ADF80640ADF802404FF0B7
:103FA000804969464846FDF735FAADF80460ADF83A
:103FB0000050ADF80640ADF80240224C694620465C
:103FC000FDF728FA00212046FDF740FC0021484675
:103FD000FDF73CFC01214046FDF738FC0121384645
:103FE000FDF734FC01212046FDF771FE0121484612
:103FF000FDF76DFE01214046FDF769FE01213846BF
:10400000FDF765FE012211462046FDF73AFC01222C
:1040100011464846FDF735FC012211464046FDF7A2
:1040200030FC012211463846FDF72BFCBDE8FE832B
:10403000240800400010014000080140000C01402D
:1040400000040040002C01407047704770477047E3
:10405000704770477047704710B501F040FAFE484E
:104060004168491C416010BD7047704770472DE999
:10407000F0410120FDF703F900286BD00120FDF786
:104080000CF9FDF7DDF8F54CDFF8D483F54F208807
:1040900000253B2804D33888401C3880258006E062
:1040A000401C2080B8F80000401CA8F800003888A8
:1040B000ED4EB0F5B46F0DD1208858B9708848B175
:1040C000758070793D2803D2042070803D20707186
:1040D000FEF7B9FC3888B0F5EB6F06D1208820B91F
:1040E000708810B17580FEF7AEFCB8F8000040F2A1
:1040F0008A21884203D3FCF784FDFCF7CEFDD64924
:10410000DA488A7822B18D702021FCF77AFC04E02D
:1041100001228A702021FCF772FCD548007838B95A
:10412000D4480078012803D1D348816F3C208847C8
:10413000D248007801280DD1D14C606F8047D1481A
:104140000078002806D1D048A16FB0F81500BDE86E
:10415000F0410847BDE8F08170477047F0B5CB49A2
:1041600091F82360002E29D000210478C84B13F861
:104170002120A2420CD103EB810290F801C05778B4
:10418000674505D192788778BA4201D10020F0BD09
:10419000491CC9B23229EAD3002103EB81025278CB
:1041A00072B1491CC9B23229F7D303F8254003EB99
:1041B000850142784A7080788870CE700120F0BD09
:1041C0000D46F2E72DE9F0410120FCF71BF900282C
:1041D000C0D0B04E01213046FCF7FDFB00286AD16B
:1041E0002021A248FCF70BFCAB480078002862D0E5
:1041F0000A20FEF753F8984CA84A21785054C1EB96
:10420000C100A34DA649A83D28440978FEF794F9BA
:104210002078C0EBC00028444078E8B30F20FEF7B8
:104220003DF880053FD42078C0EBC0002844FFF75C
:1042300095FF88B38A49002008802078C0EBC00031
:104240002844FEF7CFFF2178964FC1EBC1002844E8
:10425000796888472178C1EBC100F968284488470C
:1042600020787969C0EBC000284488472078396AF3
:10427000C0EBC000284488472078C0EBC000284429
:10428000FEF7C9FF2078401CC1B21820B1FBF0F244
:1042900000FB1210207000E005E07C48807D10B12A
:1042A0001020FCF79CF801213046FCF794FB10B974
:1042B0000720FEF795F9BDE8F0410120FCF7B0B802
:1042C00048E710B5784C2278062A0AD07748072AA2
:1042D00000780CD0032A1AD0042A18D0052A0CD052
:1042E00015E0FEF7ACF90120FCF79AF80FE0FEF7B5
:1042F000C5F90120FCF794F809E001466C48006814
:10430000FEF7DFF96B4908700120FCF789F80020FF
:104310002070BDE810400220FCF782B810B50420E0
:10432000FCF770F8002804D0BDE810400420FCF72A
:1043300077B810BD10B50820FCF764F8002804D049
:10434000BDE810400820FCF76BB810BD10B5102078
:10435000FCF758F800280CD03F4C01E0FEF729FF8D
:10436000607821788842F9D1BDE810401020FCF730
:1043700057B810BD70477047704770477047704717
:1043800070477047704770477047704710B54020BE
:10439000FCF738F810B14020FCF742F88020FCF719
:1043A00031F810B18020FCF73BF84FF480742046C0
:1043B000FCF728F810B12046FCF732F84FF40074EF
:1043C0002046FCF71FF8002804D02046BDE8104026
:1043D000FCF726B810BD704710B5374C01212046B8
:1043E000FDF778FC002812D001212046FDF77EFC65
:1043F0002249097801290AD130490A8842F4004249
:104400000A802046BDE810400021FDF71FBA10BD0C
:10441000704702212848FDF769BC10B501218C07BF
:104420002046FDF757FC002865D001212046FDF706
:104430005DFC0F48007868B121480078012803D05E
:1044400020480078012856D11F49088840F40042CE
:104450000A803BE040E00000980000208C00002033
:104460008E0000201A000020F8030020000C0140FC
:1044700020030020A200002034020020A30000201E
:10448000AC010020A8010020640A0020CC03002019
:10449000300500200008014090000020300400207A
:1044A0000A000020C4020020150000201400002093
:1044B0001000002016000020002C014028020020DF
:1044C000A6000020A7000020C80300202046BDE869
:1044D00010400021FDF7BAB98D48007801280AD1B3
:1044E0008C490A8842F400420A802046BDE8104008
:1044F0000021FDF7ABB910BD70B50024864D012138
:104500002846FDF7E7FB00285AD001212846FDF791
:10451000EDFB824904EB840000EBC40001EB80005A
:104520008279012A02D10289521C0281C279012AB0
:1045300002D14289521C4281827C012A02D1426905
:10454000521C426190F82220012A02D1426A521C78
:104550004262641CE4B2202CDCD3714971480A7EAB
:10456000072A25D2DFE802F0040C1014181C2000E2
:1045700091F82210012923D14068BDE8704000471E
:10458000C068BDE8704000474069BDE87040004722
:10459000C069BDE870400047406ABDE87040004710
:1045A000C06ABDE870400047406BBDE870400047FE
:1045B00091F82210012903D14068BDE870400047FE
:1045C00070BD10B501215848FDF790FB544890F894
:1045D0002300002810D00020544B002403EB80015E
:1045E0004A782AB1CA78521ED2B2CA7002B94C7047
:1045F000401CC0B23228F1D310BD704770477047DD
:1046000070477047704710B549484A4C01780029F7
:1046100002D1204600F018FF47490978012909D145
:1046200046490978002905D14548C16D2046BDE8B5
:104630001040084710BD10B53D48424C0178012993
:1046400002D1204600F000FF3B490978012909D139
:104650003A490978012905D13948C16D2046BDE89C
:104660001040084710BD384801783848002909D063
:1046700037490978012903D036490978012908D139
:1046800005F059BB22490978012902D13249096F45
:104690000847704710B54FF480642046FBF7B2FE20
:1046A00010B12046FBF7BCFE4FF400642046FBF738
:1046B000A9FE10B12046FBF7B3FE4FF4805420460C
:1046C000FBF7A0FE10B12046FBF7AAFE4FF4005402
:1046D0002046FBF797FE10B12046FBF7A1FE4FF4F2
:1046E00080442046FBF78EFE10B12046FBF798FE73
:1046F0004FF400442046FBF785FE002804D02046F6
:10470000BDE81040FBF78CBE10BD7047704700003D
:10471000A2000020B402002000040040B4330020B6
:10472000CC03002068010020000800403005002074
:10473000A400002000380140A3000020A5000020B4
:10474000AC0100200044004020030020004800404D
:10475000A6000020A70000203402002030B5364912
:10476000441C4FF000024FF0010302D0334CA04232
:1047700007D10A704A708A70CB700A714A718A71C7
:1047800030BD4FF47A74B0FBF4F504FB15006424DB
:10479000B0FBF4F0C0B2082845D2DFE800F0040C0A
:1047A000141C242C343C0A704A708A70CB700A7135
:1047B0004A718A7130BD0A704A708A70CA700B7172
:1047C0004A718A7130BD0A704B708A70CB700A7161
:1047D0004A718B7130BD0B704B708A70CB700A714F
:1047E0004A718B7130BD0A704A708B70CB700A7140
:1047F0004A718A7130BD0A704A708B70CA700B7131
:104800004A718A7130BD0A704B708A70CB700A7120
:104810004B718A7130BD0B704B708A70CB700A710E
:104820004B718A7130BD0A704A708A70CB700A7100
:104830004A718A7130BD0000A10000207856341200
:104840002DE9F0410646069F1446002901D0F729BC
:1048500001D9022448E0814D084629710A2B23D250
:10486000DFE803F005080B0E1114171A1D204FF492
:10487000966219E04FF4166216E04FF4965213E078
:104880004FF4165210E04FF461520DE04FF496428F
:104890000AE04FF4164207E04DF6C02204E04FF460
:1048A000614201E04FF4E13216B10224B4B11BE0E1
:1048B0006B4929616B4969616B49E9606B49A96181
:1048C0000021E9616A4929626A4969626A49A96203
:1048D0003B46214600F02EFB0446E7E700F06CFC67
:1048E00028B16E71012028702046BDE8F0810324B4
:1048F000FAE770B504460D46601E7E282DD800F0FC
:1049000077FC56482C30ADB1002200EBC2014B6859
:104910000BB1AB4205D100F8324000EBC20045605C
:1049200002E0521C102AF0DB102A01D0002411E012
:1049300004240FE0002110F83120A24206D1002209
:1049400000F8312000EBC100426002E0491C102950
:10495000F1DB002400F04AFC00E00224204670BD98
:1049600010B500243D480178012902D006242046D4
:1049700010BDC1690029FAD08847F8E770B5002456
:10498000364D2878012802D00624204670BD2869BB
:10499000804700202870F8E710B5304C20780028B8
:1049A00003D0012807D0062010BD60698047012090
:1049B0002070002010BD002010BDF8B5274D2878CC
:1049C000002801D00620F8BD684600F000FC012850
:1049D00042D19DF80000E8B3012802D002283BD163
:1049E0000FE01E4AAB69921D911CC81F984788BBF7
:1049F00068782979884200D060BB022000F0E1FB92
:104A00002AE0A8680478AC700126EE700021134BF0
:104A10002C3313F8312062B1A24207D103EBC1015C
:104A20004A680E49891D9047E87002E0491C102928
:104A3000EFDBE97849B1A878EE80AA6840F0800001
:104A40001070E888431CEB801154D5E90213EA8802
:104A5000287900E000E098470020F8BDA800002079
:104A6000814F0008A14F0008FD4F0008BB4F000810
:104A70005B500008C55000081351000870B5FF23B3
:104A8000FF22084D05F5807605E010F8014B5440F3
:104A90002A5D5A40335D491E89B2F6D242EA0320AC
:104AA00070BD000098BD00082DE9F0410C460026BD
:104AB0002188052903D003263046BDE8F0814178DE
:104AC0000A0281781143491C8FB2C1780902027928
:104AD0000A43511E40F2CF73994221D20021218016
:104AE000012100F8011B23885B1C2380530703D09E
:104AF00001EBD201CDB201E0C2F3C70500F8015BC2
:104B00002188491C218000233946FFF771F818B12C
:104B100000F044FB0646CFE7208828442080CBE7FE
:104B20000326C9E738B500240988052902D00324E3
:104B3000204638BD4178090282780A43521C91B25E
:104B400002791AB9C278FF2A02D00AB10324EFE72A
:104B500000228DF80120C078FF280CD08DF80020AD
:104B600001231A466846FFF743F80028E0D000F01A
:104B700015FB0446DCE701208DF80000F0E72DE985
:104B8000F0410D4600242988052927D941780902DA
:104B900082780A43521C91B2C278130202791A43F6
:104BA0004679530704D0012303EBD203DBB201E0C3
:104BB000C2F3C703571EB7F5F66F0DD2B3420BD140
:104BC0000123801DFFF714F818B100F0E7FA04463E
:104BD00005E00520288002E0032400E003242046AD
:104BE0006BE770B50C4600262188052902D0032604
:104BF000304670BD4178090282780A43521C93B254
:104C0000C178090202790A43511E40F2CF75A942C8
:104C100021D200212180022100F8011B2188491C9A
:104C20002180510704D0012101EBD201CDB201E076
:104C3000C2F3C70500F8015B2188491C2180194691
:104C4000FEF7D8FF18B100F0A9FA0646D0E7208891
:104C500028442080CCE70326CAE7000010B50024D2
:104C60000988052902D00324204610BD41780A0294
:104C70008178114301231A46C01CFEF7FCFB002873
:104C8000F2D000F08BFA0446EEE770B50D46002432
:104C9000298806291DD341780A0281781143C278F8
:104CA000130202791A434379561E772E0FD85606FF
:104CB000360E9E420BD10123801DFEF7DCFB18B19E
:104CC00000F06CFA044605E00520288002E0032489
:104CD00000E00324204670BD2DE9F0470C46002774
:104CE0002188052903D003273846BDE8F08741789D
:104CF0000A028178114305790646DFF86081B1F533
:104D00007C4F01D1012D04D00020B1F57D4F07D09B
:104D100008E0012088F82400FEF700FA2080E3E78D
:104D2000012D20D0A1F57F424FF00309F03A01D1C7
:104D3000022D1ED06A1E7C2A43D8208086F800905F
:104D400030462288521C22806A004270801C2288D1
:104D5000521C228000232A46FEF78DFB60B300F030
:104D60001DFA0746C0E788F82400FEF72FF92080D7
:104D7000BAE7FCF72AFA06F03DF9FBF72FFA41F201
:104D8000883190FBF1F201FB1200FFF71EF80620BC
:104D9000208086F8009004207070B8F80400000AA3
:104DA000B07098F80400F070B8F80600000A30718E
:104DB00098F80600707197E7208800EB4500208086
:104DC00092E7032790E72DE9F04104460D460027BE
:104DD00028880A283FD36078000294F8028048EAC5
:104DE0000008E07800022679064360790002A17984
:104DF0000143E0790002227A0243607A731E7C2B21
:104E000028D83AB3792A25D8B0EB420F22D1012312
:104E100004F10A00FEF72FFBB8B9204600212980D3
:104E2000172101702988491C298071004170801C5C
:104E30002988491C2980002332464146FEF71BFB86
:104E400018B9298801EB4601298020B100F0A6F9A4
:104E5000074600E003273846BDE8F081CC03002078
:104E600070B50C4600262188052902D0032630465D
:104E700070BD41780A0281781143491C89B2C27819
:104E80001202057915436A1E7C2A19D2002222805B
:104E9000042202702288521C22806A004270801C08
:104EA0002288521C22802A46FEF7E3FA18B100F04D
:104EB00075F90646DBE7208800EB45002080D6E741
:104EC0000326D4E72DE9F0418C46074611461C46DF
:104ED0000025A01C202816D2134E01203080134834
:104EE0000770BCF1000F01D0FF2200E00022022376
:104EF0003380427044B1801C224606F0EEF83088C0
:104F00002044308000E004252846BDE8F08170B5DB
:104F10000C46054D0549401C2A8806F0DEF8288815
:104F2000401C2080002070BD54010020F8050020A6
:104F3000844870472DE9F0410E4615461F4600246F
:104F400000F056F93B4608222946304600F0B8F9F1
:104F5000012801D003240EE0B5F5964F01D9232096
:104F600003E079496800B1FBF0F080B200F09CFAF0
:104F7000012800D0032400F039F92046BDE8F08173
:104F800010B500F035F9714900204870002101206A
:104F900000F030F900F096FABDE8104000F026B9B4
:104FA00010B500F025F90021084600F023F900F0C3
:104FB00092FABDE8104000F019B92DE9F04106461B
:104FC0000F469046002400F013F9604DA88804288D
:104FD00004D3A9885B48FFF751FD20B1052400F0F8
:104FE00005F92046CAE7574800783070A888C01EE7
:104FF000A8F800005348401C3860F0E72DE9F0475E
:1050000080460D469146002600F0F2F84F4C60783D
:10501000012805D0052600F0E9F83046BDE8F08704
:105020006D1E2846A5600127678080F80080618892
:10503000494461806188FFF721FD61884A1C6280D4
:10504000404A5054030A6088411C61801354277001
:105050000121002000F0CEF8DDE738B500246846D5
:1050600000F0E5F9394A517839B1364801290AD0BA
:10507000022915D0032923D102E000F023FA1FE012
:1050800000F020FA1CE0002191809DF800509188EA
:105090004B1C938045540220507000F013FA0FE02F
:1050A000918840F28A23994206D29DF80050918857
:1050B0004B1C9380455401E00320507000F002FA2D
:1050C000204638BD70B50025204C2078002802D03D
:1050D00001281CD104E00021012000F08BF816E02B
:1050E000608850B1A068007800F08EF9A068401C7C
:1050F000A0606088401E608009E0032000F061F835
:1051000005460021012000F075F800202070284697
:1051100070BD70B500240D4D6878002802D00228BB
:1051200009D104E0002000F04CF8044603E001201F
:1051300000F047F8044600F0CEF9012068702046E0
:1051400070BD000018060020A07F17005801002045
:1051500070B5CC08654201EBC5018B400125954037
:105160006D1E8D40015D0219567841EA0621A94362
:1051700019430155080A507070BD10B5CB085C4248
:1051800001EBC40101249440641EC25C18444078C1
:1051900042EA0020C8402040C0B210BD002805D01F
:1051A000012805D0072805D004207047002070474B
:1051B00002207047062070470B49002048700120EC
:1051C0007047094901224A70087001207047024661
:1051D000002005494B78002B04D00878107000207F
:1051E00048700120704700006401002062B67047DB
:1051F00072B670472DE9F0478846A54E3546A54C56
:10520000A54F2178002900D13D46FFF7F1FFDFF8D7
:105210008C9240F2255AC8B140212846FCF7CAFEBC
:105220000028F9D0207840B902214846FBF7E9FB75
:10523000012251463846FCF715FE2078012814D18A
:10524000012251463046FCF70DFE0EE0207820B9D1
:10525000002251463846FCF705FE2078012804D18B
:10526000002251463046FCF7FDFD40F22775B8F1AB
:10527000000F13D0207840B9012229463846FCF7A8
:10528000F1FD02214846FBF7BAFB2078012814D132
:10529000012229463046FCF7E5FD0EE0207820B9D2
:1052A000002229463846FCF7DDFD2078012804D18C
:1052B000002229463046FCF7D5FDBDE8F04795E7CA
:1052C0002DE9FF4F85B01E460124724F3878002823
:1052D00003D101218803FBF705FF3878012803D1AA
:1052E00001214004FBF709FF3878DFF8B0814FF067
:1052F000180903254FF0040A4FF4806B08BB8DF8A2
:1053000013904FF40070ADF810008DF8125004A9FE
:105310004046FBF706FB8DF813A0ADF810B08DF8F2
:10532000125004A94046FBF7FCFA0220ADF8100029
:1053300010208DF813008DF8125004A94046FBF799
:10534000F0FA3878012815D18DF81390ADF810A037
:105350008DF8125004A94046FBF7E3FA48208DF877
:1053600013000820ADF810008DF8125004A9404633
:10537000FBF7D7FA06980090002126B1012E05D040
:10538000022E0AD107E0ADF8081006E04FF4C06025
:10539000ADF8080001E0ADF808B00798072802D082
:1053A00008280DD000245CB3FFF722FFADF80610EB
:1053B000ADF80C100C20ADF80A00387848B111E0B7
:1053C00026B14FF48050ADF80400ECE7ADF80410BE
:1053D000E9E7314D69462846FCF7D5FC012128460E
:1053E000FCF734FD3878012808D1294D6946284654
:1053F000FCF7C9FC01212846FCF728FDFFF7F6FE63
:1054000009B02046BDE8F08F10B50146204C214878
:105410000078002800D1204C2046FCF776FD802142
:105420002046FCF7C7FD0028F9D0012010BD10B5BB
:105430000446174817490978002900D11648FCF797
:1054400068FD2070012010BD70B5054640F227743C
:1054500021462846FCF7B8FD40B111480068804756
:1054600021462846BDE87040FCF7CCBD40F22554EB
:1054700021462846FCF7A8FD002808D00948006806
:10548000804721462846BDE87040FCF7BBBD70BD93
:1054900000440040A4000020003801400008014002
:1054A000CC000020C800002010B532214843FBF793
:1054B0000BFF6FF00400FBF7F9FE0120FBF71BFF69
:1054C000012010BD10B50020FBF702FFBDE8104021
:1054D0000120FBF7FDBE6FF00100FBF7F9BE0148AC
:1054E00000680047D00000202DE9F0470023FF4C62
:1054F000C0EBC00504EB8504002665880127DFF8B2
:10550000F083DFF8F0C3002D07D08D421BD2A1EB52
:105510000505642D20DAABB21EE06180012A09D0B6
:1055200038F810105CF82000FBF76BFA2672666002
:10553000BDE8F08738F810105CF82000FBF75FFA40
:1055400027726660F4E707D94FF6FF79A9EB0505E6
:105550000D44642D00D2ABB26180217B41B1606902
:1055600018446061642801D3642060616273DFE7DE
:105570001BB1236162732773DAE7012A08D038F878
:1055800010105CF82000FBF73CFA26726660CFE74B
:1055900038F810105CF82000FBF731FA27726660CB
:1055A000C6E72DE9F05F0025DFF84C93D04FDFF818
:1055B0004483DFF838B300264FF0010AC5EBC5007D
:1055C0003BF82010F1B30BEB8004207A012813D1B3
:1055D0006168491C6160B9F8200000EB4002C2EB31
:1055E000C010B1EBC00F07D337F8151058F82500DD
:1055F000FBF707FA26726660207B18B3A06988B3B0
:10560000B9F81E1001EB8101B0EB810F08D137F81A
:10561000151058F82500FBF7F2F984F808A0666029
:10562000A069401CA061B9F81E1001EB81018A003D
:10563000B9F81A1001EB810102EB8101491C81428A
:105640000AD800E008E0A6612069401E206198B1F8
:10565000642801D9642020616D1CEDB2102DADD3FA
:10566000BDE8F09FFFE737F8151058F82500FBF765
:10567000C8F926726660D3E72673607B90B137F86D
:10568000151058F82500FBF7BAF984F808A06660F1
:1056900060690028E0D0216908442061666184F8CF
:1056A0000CA0D9E737F8151058F82500FBF7A9F931
:1056B00026726660ECE72DE9F04100238B4CC0EBCD
:1056C000C00504EB8504002665880127002D07D05E
:1056D0008D421DD2A1EB0500642821DA83B21FE0C0
:1056E00061808349834B012A09D031F8101053F8A7
:1056F0002000FBF786F926726660BDE8F08131F87C
:10570000101053F82000FBF77AF927726660F4E76F
:1057100006D94FF6FF70401B0844642800D283B2BC
:105720006180207B40B1606918446061642801D3C6
:10573000642060616673E0E7002BDED0236166734E
:105740002773DAE72DE9F05F0025DFF8AC91684FA9
:10575000DFF8A081DFF894B100264FF0010AC5EB15
:10576000C5003BF8201071B30BEB8004207B50B3D5
:10577000A06968B3B9F81A1001EB8101B0EB810F91
:1057800007D137F8151058F82500FBF73AF92672BB
:105790006660A069401CA061B9F81A1001EB810194
:1057A0008A00B9F81E1001EB810102EB8101491C4E
:1057B000814208D8A6612069401E206190B164280A
:1057C00001D9642020616D1CEDB2102DC7D347E7CD
:1057D00037F8151058F82500FBF711F984F808A0E0
:1057E0006660D6E7267337F8151058F82500FBF7E2
:1057F00008F92672666060690028E4D021690844CF
:105800002061666184F80CA0DDE72DE9F0410023FA
:10581000364CC0EBC00504EB8504002665880127E3
:10582000002D07D08D421CD2A1EB0500642820DAA0
:1058300083B21EE061802E492E4B012A08D031F838
:10584000101053F82000FBF7DCF82672666054E76E
:1058500031F8101053F82000FBF7D1F8277266607A
:105860004BE706D94FF6FF70401B0844642800D26E
:1058700083B26180207B40B1606918446061642814
:1058800001D364206061667337E7002BDFD02361AA
:105890006673277331E72DE9F05F0025DFF8589034
:1058A000134FDFF85080DFF844B000264FF0010AB4
:1058B000C5EBC5003BF82010B9B30BEB8004207B8F
:1058C00098B3A069B0B3B9F81C1001EB8101B0EB3B
:1058D000810F07D137F8151058F82500FBF791F81C
:1058E00026726660A069401CA06107E0A408002041
:1058F0006C0000202C000020CC030020B9F81C1004
:1059000001EB81018A00B9F81E1001EB810102EB65
:105910008101491C814208D8A6612069401E20618E
:1059200098B1642801D9642020616D1CEDB2102D5E
:10593000BED395E6FFE737F8151058F82500FBF7BA
:105940005EF884F808A06660CCE7267337F8151077
:1059500058F82500FBF755F8267266606069002844
:10596000E3D0216908442061666184F80CA0DCE77B
:105970002DE9F0410023FA4CC0EBC00504EB85048F
:10598000012667880025002F07D08F421CD2A1EB8B
:105990000700642820DA83B21EE06180F149F24BEF
:1059A000012A08D031F8101053F82000FBF729F82D
:1059B00025726560A1E631F8101053F82000FBF75E
:1059C0001EF82672656098E606D94FF6FF70C01B78
:1059D0000844642800D283B26180217B4FF0FF30FD
:1059E00069B17BB3012A20D0606900EB430060619C
:1059F000C8282AD3594200EB4100606130E073B1FE
:105A0000012A06D0580020616572A672657326735C
:105A100073E600EB430020616672A572F6E726612B
:105A20006572A5726573267367E6616900EB4300D2
:105A300008446061C82806D3594206EB4101084476
:105A400060610DE003E0E6720AE0E57208E060697B
:105A5000401C6061C82802D3401E606100E0E5720E
:105A600065734AE62DE9F05F0025DFF800A3BD4F1E
:105A7000DFF8F48200264FF001094FF0C80BB84957
:105A8000C5EBC50031F82020002A3AD001EB800494
:105A9000207B0028F9D0607A012833D0A07A002832
:105AA0007ED0207CC0077CD0A06900287AD0BAF8CC
:105AB0001C1001EB8101B0EB810F07D137F81510F5
:105AC00058F82500FAF79DFF26726660A069401C11
:105AD000A061BAF81C1001EB81018A00BAF81E100F
